:020000020000FC
:0200000004C03A
:1000080028C08FE58DBF84E08EBF0FEF07BB0ABB0A
:1000180000270BBB01BB442722270CE005BF00E8E3
:100028000BBF789448BB88EC90E002D04395FACF98
:100038008F939F9386EE93E005D09F918F910197C0
:10004800B9F7089501970000000000000000D1F7FB
:1000580008958F939F930FB70F9300E80ABF85E029
:1000680090E0E6DF0AB700780030B9F700B300780F
:10007800003029F023952BBB86EE93E0D9DF0F9152
:080088000FBF9F918F911895A5
:00000001FF
