:100000000C942A000C943C000C943C000C943C0092
:100010000C943C000C943C000C943C000C943C0070
:100020000C943C000C943C000C943C000C943C0060
:100030000C943C000C943C000C943C000C943C0050
:100040000C943C000C943C000C943C000C943C0040
:100050000C943C0011241FBECFE5D4E0DEBFCDBF21
:1000600010E0A0E6B0E001C01D92A236B107E1F7B2
:100070000E943E000C9431010C940000DF93CF935A
:10008000CDB7DEB72A970FB6F894DEBF0FBECDBF4F
:1000900084E390E0FC0110828AE390E02FEFFC0102
:1000A000208380E8809360008BE390E020916000E3
:1000B000FC01208319821A821B821C821D8283E329
:1000C00090E0FC01808180936100809161008071EB
:1000D0008E838091610088708F838091610084702D
:1000E000888780916100827089878091610081702A
:1000F0008A878981882369F08E81882351F480E87A
:10010000809360008BE390E020916000FC012083ED
:100110009DC08A81882361F18F81882349F5809170
:100120006000803451F481E0809360008BE390E0C4
:1001300020916000FC01208389C08091600080389C
:1001400051F482E0809360008BE390E020916000A6
:10015000FC0120837BC080916000880F880F809312
:1001600060008BE390E020916000FC0120836EC072
:100170008B81882361F18885882349F5809160000F
:10018000823051F480E8809360008BE390E020910E
:100190006000FC0120835AC080916000813051F4DE
:1001A00080E4809360008BE390E020916000FC018C
:1001B00020834CC080916000869586958093600076
:1001C0008BE390E020916000FC0120833FC08C8194
:1001D0008823E9F089858823D1F4809160008038F4
:1001E00051F481E0809360008BE390E02091600007
:1001F000FC0120832BC080916000880F80936000F9
:100200008BE390E020916000FC0120831FC08D8172
:100210008823E1F08A858823C9F4809160008130C9
:1002200051F480E8809360008BE390E020916000BF
:10023000FC0120830BC08091600086958093600054
:100240008BE390E020916000FC0120838A858D8300
:1002500089858C8388858B838F818A838E8189832E
:060260002ECFF894FFCF41
:00000001FF
