:020000020000FC
:0200000010C02E
:100020006AC02FE52DBF24E02EBF2FEF2ABB222769
:1000300027BB80EF84BB8CEF81BBA0E6B0E022271A
:100040002D932C937894A8D026B32030E9F324E0A4
:1000500029BF25E02EBD27E62DBD29E62CBD8EE06B
:1000600095D0552711278AE0D5D0EBD08030C9F341
:100070008F9386D08F911395843309F453958AE03A
:10008000C9D0DFD08030D9F38F937AD08F91139578
:10009000813309F453958AE0BDD0D3D08030D9F3B1
:1000A0008F936ED08CE072D08F911395823381F450
:1000B0005395533069F491E084EF41D06DD030D046
:1000C00086E45ED086E45CD09BE088EB38D0FFCF3E
:1000D00091E084EF34D060D023D08EE451D02FEF64
:1000E0002BBB91E080E92BD090E084E622272BBB4C
:1000F00026D00C946F00533091F0133081F04CD027
:100100000FD08EE43DD02FEF2BBB91E080E917D0CC
:1001100090E084E622272BBB12D00C948300089534
:1001200081E42ED08CE42CD081E42AD082E528D042
:100130008DE426D080E224D08FE422D008958F93DE
:100140009F9386EE93E005D09F918F910197B9F729
:10015000089501970000000000000000D1F7089505
:100160008F9390B39F70807F890F82BB939A9398EF
:100170008F918295807F890F82BB939A939808957F
:10018000929AEEDF8BE290E0E4DF08959298E8DF48
:1001900087E290E0DEDF089588E290E0D0DF80E340
:1001A00082BB939A939887E290E0D3DF80E382BB8F
:1001B000939A939887E290E0CCDF80E282BB939A97
:1001C000939887E290E0C5DF88E2E0DF8CE0DEDF35
:1001D00081E0DCDF8AEF95E0BCDF86E0D7DF0895C1
:1001E00098E0990F8A95E9F795BB0000000083B36A
:1001F0008F70089581E0F4DF8295B82F82E0F0DF00
:10020000B80F83E0EDDF8295A82F84E0E9DFA80F27
:10021000CD010895682FEEDF8F939F93862F992746
:100220008EDFE8DF7F916F9186239723A0E6B0E011
:100230007D916C918C939E93709560958623972306
:100240000895DC018AE2A0FD089580E3A1FD0895F0
:1002500083E2A2FD089584E4A3FD089587E3A4FD4D
:10026000089588E3A5FD089589E3A6FD089583E434
:10027000A7FD089584E3B0FD089585E3B1FD0895D9
:1002800086E3B2FD089582E4B3FD089581E3B4FDF1
:10029000089582E3B5FD089583E3B6FD089581E4F2
:0802A000B7FD089588270895B9
:00000001FF
