:020000020000FC
:1000000000C00FE50DBF04E00EBF8CEF81BB80EF99
:1000100084BBA0E6B0E000270D930C930FEF0ABB62
:1000200007BB08BB29D186D0103811F00C943D00D5
:100030008AE060D176D18F3FD9F3182F8894111FB1
:10004000111F111F111F8AE055D16BD18F3FD9F3BA
:10005000182B8AE04FD165D18F3FD9F3282F889490
:10006000221F221F221F221F8AE044D15AD18F3F14
:10007000D9F3282B1F3F09F42A95FED0103829F414
:1000800046D088EE93E07BD0CECF00273FEF13170A
:1000900019F08BE2E5D003C08DE2E2D02095322F3B
:1000A0003170303009F00FEF662755274427269529
:1000B000245610F04395FCCF34E6230F2A5010F05D
:1000C0005395FCCF3AE0230F622F08D082EBC8D0C3
:1000D00083E4C6D088EE93E052D0A5CF403021F023
:1000E00030E3430F842FBCD0503011F4403021F066
:1000F00030E3530F852FB4D030E3630F862FB0D099
:10010000003021F08EE2ACD085E3AAD008958EE4D1
:10011000A7D08FE4A5D080E2A3D084E4A1D085E667
:100120009FD086E79DD089E69BD083E699D085E66F
:1001300097D0089535D08130B1F48CEC77D084E439
:1001400075D042D080FFFDCF2BD0813061F48CEC94
:100150006DD08EEB6BD05FD0282F5DD0182F1F3F56
:1001600009F42A9502C010E822278F939F932695C1
:100170002BBB88EE93E003D09F918F9108958F93CE
:100180009F9386EE93E005D09F918F910197B9F7E9
:10019000089501970000000000000000D1F70895C5
:1001A000D49ADC9880EE91E0F4DFD498DC9884E671
:1001B00090E0EFDF89B38F938CE791E0EADF9F91C6
:1001C000882794FF81E00895D49ADC9882E090E03B
:1001D000E0DFD498DC988AE090E0DBDF8827CC99D8
:1001E00081E08F9381E390E0D4DF8F9108958F9326
:1001F000D49ADC9882E090E0CCDF8F9180FDDC9A8D
:1002000080FFDC988AE390E0C4DFD498DC9881E03A
:1002100090E0BFDF0895B8E0AA27D6DFA69580FD5D
:1002200080E8A82BBA95C9F78A2F0895A82FB8E0BF
:100230008827A0FD81E0DBDFA695BA95C9F7089570
:100240008F9390B39F70807F890F82BB939A93980E
:100250008F918295807F890F82BB939A939808959E
:10026000929AEEDF8BE290E094DF08959298E8DFB7
:1002700087E290E08EDF089588E290E080DF80E3FF
:1002800082BB939A939887E290E083DF80E382BBFE
:10029000939A939887E290E07CDF80E282BB939A06
:1002A000939887E290E075DF88E2E0DF8CE0DEDFA4
:1002B00081E0DCDF8AEF95E06CDF86E0D7DF089530
:1002C00098E0990F8A95E9F795BB0000000083B389
:1002D0008F70089581E0F4DF8295B82F82E0F0DF1F
:1002E000B80F83E0EDDF8295A82F84E0E9DFA80F47
:1002F000CD010895682FEEDF8F939F93862F992766
:100300003EDFE8DF7F916F9186239723A0E6B0E080
:100310007D916C918C939E93709560958623972325
:100320000895DC018EE0A0FD089580E0A1FD089510
:100330008FE0A2FD08958DE0A3FD089587E0A4FD60
:10034000089588E0A5FD089589E0A6FD08958CE054
:10035000A7FD089584E0B0FD089585E0B1FD0895FE
:1003600086E0B2FD08958BE0B3FD089581E0B4FD11
:10037000089582E0B5FD089583E0B6FD08958AE012
:08038000B7FD08958FEF089509
:00000001FF
