:020000020000FC
:100000002FE52DBF24E02EBF22272ABB2FEF21BBD7
:1000100085D0552770E848E029B3622F6723603008
:1000200009F051E0603021F081E36CD00C941A00AB
:1000300080E368D088947795622F67234A9591F77B
:100040008DE360D02030B1F12F3FA1F1503029F085
:100050008DE258D020950C942F008BE253D033279B
:1000600011270027245618F033950C94320064E6CB
:10007000260F2A5018F013950C9439006AE0260FC9
:10008000022F50E0303029F051E0832F20E3820F1F
:1000900039D0503011F4103021F0812F20E3820F3D
:1000A00031D0802F20E3820F2DD093E088EE09D04D
:1000B0000C94080080E326D093E088EE02D00C94E4
:1000C00008008F939F9386EE93E005D09F918F91C8
:1000D0000197B9F7089501970000000000000000A3
:1000E000D1F708958F9390B39F70807F890F82BB63
:1000F000939A93988F918295807F890F82BB939A70
:1001000093980895929AEEDF8BE290E0E4DF0895F1
:100110009298E8DF87E290E0DEDF089588E290E0E1
:10012000D0DF80E382BB939A939887E290E0D3DF9D
:1001300080E382BB939A939887E290E0CCDF80E2E1
:1001400082BB939A939887E290E0C5DF88E2E0DF74
:100150008CE0DEDF81E0DCDF8AEF95E0BCDF86E06B
:04016000D7DF089548
:00000001FF
