:020000020000FC
:1000000000C04FE54DBF44E04EBF442747BB8CEFD7
:1000100081BB9ED0002711270BD046B3542F5078B8
:100020005038B9F3542F51705130B9F71CD0F5CF77
:1000300080E382D080E380D080E27ED08DE47CD0EB
:1000400089E47AD08EE478D08AE376D080E374D0E5
:1000500080E372D080E270D083E56ED085E46CD00E
:1000600083E46AD008955F934F9313951C3329F46A
:10007000112703950C3309F4002788EE93E03BD059
:1000800067D0402F2BD0522F40E3540F852F54D0F0
:10009000532F540F852F50D080E24ED08DE44CD09A
:1000A00089E44AD08EE448D08AE346D0412F16D066
:1000B000522F40E3540F852F3FD0532F3BBB40E3DB
:1000C000540F852F39D080E237D083E535D085E4D1
:1000D00033D083E431D04F915F9108955F9322270D
:1000E00033274A5018F023950C9471005AE0450FBD
:1000F000342F5F9108958F939F9386EE93E005D000
:100100009F918F910197B9F7089501970000000022
:1001100000000000D1F708958F9390B39F70807F07
:10012000890F82BB939A93988F918295807F890FD4
:1001300082BB939A93980895929AEEDF8BE290E0B7
:10014000E4DF08959298E8DF87E290E0DEDF08952B
:1001500088E290E0D0DF80E382BB939A939887E2B5
:1001600090E0D3DF80E382BB939A939887E290E09C
:10017000CCDF80E282BB939A939887E290E0C5DF60
:1001800088E2E0DF8CE0DEDF81E0DCDF8AEF95E013
:08019000BCDF86E0D7DF089513
:00000001FF
