:020000020000FC
:100000005FE55DBF54E05EBF5FEF5ABB63D00C9409
:1000100000008F939F9386EE93E005D09F918F9180
:100020000197B9F708950197000000000000000053
:10003000D1F70895D49ADC9880EE91E0F4DFD4985B
:10004000DC9884E690E0EFDF89B38F938CE791E052
:10005000EADF9F91882794FF81E00895D49ADC9885
:1000600082E090E0E0DFD498DC988AE090E0DBDF8B
:100070008827CC9981E08F9381E390E0D4DF8F9142
:1000800008958F93D49ADC9882E090E0CCDF8F9132
:1000900080FDDC9A80FFDC988AE390E0C4DFD4988E
:1000A000DC9881E090E0BFDF0895B8E0AA27D6DFB2
:1000B000A69580FD80E8A82BBA95C9F78A2F0895E8
:1000C000A82FB8E08827A0FD81E0DBDFA695BA95D0
:1000D000C9F70895AFDF8130B1F48CECF1DF84E42F
:1000E000EFDFBCDF80FFFDCFA5DF813061F48CEC5A
:1000F000E7DF8EEBE5DFD9DF382FD7DF282F2F3F63
:1001000009F43A9502C020E83327132F16951BBB3C
:0801100088EE93E07EDF089504
:00000001FF
