:020000020000FC
:100000008FE58DBF84E08EBF20EF24BB2FEF27BB91
:100010002ABB112718BB8AE04DD063D08BBB80333D
:10002000D0F38A33C0F7813319F011D00C940B0050
:100030008AE040D056D0803370F38A3360F786333D
:1000400019F005D00C940B0013D00C940B0008E0B1
:10005000003069F01FEF18BB8AEF90E075D010E018
:1000600018BB8AEF90E070D00A950C942800089590
:100070001FEF18BB80EA9FE067D010E018BB08951F
:1000800098E0990F8A95E9F795BB0000000083B3CB
:100090008F70089581E0F4DF8295B82F82E0F0DF61
:1000A000B80F83E0EDDF8295A82F84E0E9DFA80F89
:1000B000CD010895682FEEDF8F939F93862F90E0F8
:1000C00043D0E8DF7F916F9186239723A0E6B0E0CD
:1000D0007D916C918C939E93709560958623972368
:1000E0000895DC018AE2A0FD089580E3A1FD089552
:1000F00083E2A2FD089584E4A3FD089587E3A4FDAF
:10010000089588E3A5FD089589E3A6FD089583E495
:10011000A7FD089584E3B0FD089585E3B1FD08953A
:1001200086E3B2FD089582E4B3FD089581E3B4FD52
:10013000089582E3B5FD089583E3B6FD089581E453
:10014000B7FD0895882708958F939F9386EE93E0D7
:1001500005D09F918F910197B9F7089501970000FD
:0A016000000000000000D1F7089530
:00000001FF
