:020000020000FC
:0200000010C02E
:020008003EC0F8
:100020002EC04FE54DBF44E04EBF6FEF4FEF47BBD3
:1000300044274ABB41BB4CE045BF40E84BBF44E0CE
:1000400049BF45E04EBD789449B340784030E1F374
:1000500045E84DBD4EEE4CBD6F3F49F044274BBFC8
:1000600084EF91E04FEF48BB30D050E85BBF66278C
:1000700041E048BB49B340784038E1F3E5CF55272C
:1000800058BB6FEF18955FB75F9350E85ABF85E094
:1000900090E01BD05AB750785030B9F755E85DBDA5
:1000A0005EEE5CBD6F3F59F05FEF58BB55275BBFFD
:1000B00084EF91E00AD050E85BBF0C9460006627A3
:1000C00051E058BB5F915FBF18958F939F9386EE69
:1000D00093E005D09F918F910197B9F7089501970B
:0C00E0000000000000000000D1F70895AF
:00000001FF
