:020000020000FC
:100000002FE52DBF24E02EBF2FEF27BB2ABB80EFAB
:1000100084BBA0E6B0E022272D932C9328BB31E0CF
:100020008AE053D069D08030D1F3813309F033278F
:100030008AE04BD061D08030D9F3823309F0332786
:10004000303049F09FE080EA2FEF28BB13D0222701
:1000500028BB0C940F0018E02FEF28BB90E08AEF2C
:1000600009D090E08AEF222728BB04D01A95A1F787
:100070000C940F008F939F9386EE93E005D09F9191
:100080008F910197B9F708950197000000000000D3
:100090000000D1F7089598E0990F8A95E9F795BB8C
:1000A0000000000083B38F70089581E0F4DF829533
:1000B000B82F82E0F0DFB80F83E0EDDF8295A82F44
:1000C00084E0E9DFA80FCD010895682FEEDF8F935C
:1000D0009F93862F9927CEDFE8DF7F916F9186234C
:1000E0009723A0E6B0E07D916C918C939E937095E0
:1000F0006095862397230895DC018AE2A0FD089588
:1001000080E3A1FD089583E2A2FD089584E4A3FDA8
:10011000089587E3A4FD089588E3A5FD089589E384
:10012000A6FD089583E4A7FD089584E3B0FD089536
:1001300085E3B1FD089586E3B2FD089582E4B3FD41
:10014000089581E3B4FD089582E3B5FD089583E346
:0E015000B6FD089581E4B7FD0895882708954F
:00000001FF
