:100000000C942A000C943C000C943C000C943C0092
:100010000C943C000C943C000C943C000C943C0070
:100020000C943C000C943C000C943C000C943C0060
:100030000C943C000C943C000C943C000C943C0050
:100040000C943C000C943C000C943C000C943C0040
:100050000C943C0011241FBECFE5D4E0DEBFCDBF21
:1000600010E0A0E6B0E001C01D92A236B107E1F7B2
:100070000E943E000C94DE000C940000DF93CF93AE
:10008000CDB7DEB72B970FB6F894DEBF0FBECDBF4E
:100090008AE390E0FC01108284E390E02FEFFC0102
:1000A00020831092600085E390E020916000FC01C5
:1000B000208389E390E0FC0180818093610080913E
:1000C00061008170898380916100882F90E0827047
:1000D0009070959587958A8380916100882F90E034
:1000E0008470907095958795959587958B83809171
:1000F0006100882F90E08870907095958795959510
:100100008795959587958C8380916100882F90E0E5
:10011000807190709595879595958795959587951C
:10012000959587958D8399818A8198238B818923E1
:100130008E839B818C8189238F839C818D818923F0
:1001400088879E818F81982B8885892B8F838F81CB
:10015000809589879C818D81892B80958F839E8155
:100160008F81892B8A8799858A85892B8B878985B9
:10017000817089878A8581708A878B8581708B875A
:1001800089858295880F807E89878A858295880FE8
:10019000880F807C8A878B858795882787958B87B2
:1001A00099858A85982B8B85892B8093600085E3C0
:1001B00090E020916000FC0120837BCFF894FFCF7A
:00000001FF
