:020000020000FC
:0200000002C03C
:1000040027C08FE58DBF84E08EBF0FEF07BB04BB15
:1000140000270ABB442703E005BF00E40BBF789424
:1000240045BB48BB88EC90E002D04395FACF8F9350
:100034009F9386EE93E005D09F918F910197B9F736
:10004400089501970000000000000000D1F7089512
:100054008F939F930FB70F9300E40ABF85E090E05E
:10006400E6DF0AB700780030B9F72FEF18E009B3DC
:10007400079508F4220F1A95D9F7209525BB86EE2B
:0E00840093E0D5DF0F910FBF9F918F911895DC
:00000001FF
